{
  "contractName": "Campaign",
  "abi": [
    {
      "inputs": [
        {
          "internalType": "string",
          "name": "_cName",
          "type": "string"
        },
        {
          "internalType": "string",
          "name": "_desc",
          "type": "string"
        },
        {
          "internalType": "address",
          "name": "_crAddress",
          "type": "address"
        },
        {
          "internalType": "bool",
          "name": "_cType",
          "type": "bool"
        },
        {
          "internalType": "address[]",
          "name": "_vAddresses",
          "type": "address[]"
        },
        {
          "internalType": "uint256[]",
          "name": "_vAmounts",
          "type": "uint256[]"
        }
      ],
      "stateMutability": "nonpayable",
      "type": "constructor"
    },
    {
      "anonymous": false,
      "inputs": [
        {
          "indexed": false,
          "internalType": "address",
          "name": "campaign_address",
          "type": "address"
        },
        {
          "indexed": false,
          "internalType": "address",
          "name": "vendor_address",
          "type": "address"
        },
        {
          "indexed": false,
          "internalType": "uint256",
          "name": "amount",
          "type": "uint256"
        },
        {
          "indexed": false,
          "internalType": "string",
          "name": "trans_type",
          "type": "string"
        }
      ],
      "name": "FundTransfers",
      "type": "event"
    },
    {
      "inputs": [],
      "name": "amountToRaise",
      "outputs": [
        {
          "internalType": "uint256",
          "name": "",
          "type": "uint256"
        }
      ],
      "stateMutability": "view",
      "type": "function"
    },
    {
      "inputs": [],
      "name": "campaignDescription",
      "outputs": [
        {
          "internalType": "string",
          "name": "",
          "type": "string"
        }
      ],
      "stateMutability": "view",
      "type": "function"
    },
    {
      "inputs": [],
      "name": "campaignEnded",
      "outputs": [
        {
          "internalType": "bool",
          "name": "",
          "type": "bool"
        }
      ],
      "stateMutability": "view",
      "type": "function"
    },
    {
      "inputs": [],
      "name": "campaignName",
      "outputs": [
        {
          "internalType": "string",
          "name": "",
          "type": "string"
        }
      ],
      "stateMutability": "view",
      "type": "function"
    },
    {
      "inputs": [],
      "name": "campaignType",
      "outputs": [
        {
          "internalType": "enum Campaign.CampaignType",
          "name": "",
          "type": "uint8"
        }
      ],
      "stateMutability": "view",
      "type": "function"
    },
    {
      "inputs": [],
      "name": "campaignerAddress",
      "outputs": [
        {
          "internalType": "address",
          "name": "",
          "type": "address"
        }
      ],
      "stateMutability": "view",
      "type": "function"
    },
    {
      "inputs": [
        {
          "internalType": "address",
          "name": "",
          "type": "address"
        }
      ],
      "name": "donations",
      "outputs": [
        {
          "internalType": "uint256",
          "name": "",
          "type": "uint256"
        }
      ],
      "stateMutability": "view",
      "type": "function"
    },
    {
      "inputs": [
        {
          "internalType": "address",
          "name": "",
          "type": "address"
        }
      ],
      "name": "vendorsDetails",
      "outputs": [
        {
          "internalType": "uint256",
          "name": "",
          "type": "uint256"
        }
      ],
      "stateMutability": "view",
      "type": "function"
    },
    {
      "inputs": [
        {
          "internalType": "address",
          "name": "donor",
          "type": "address"
        },
        {
          "internalType": "uint256",
          "name": "amount",
          "type": "uint256"
        }
      ],
      "name": "addDonation",
      "outputs": [],
      "stateMutability": "nonpayable",
      "type": "function"
    },
    {
      "inputs": [],
      "name": "getCampaignDetails",
      "outputs": [
        {
          "internalType": "string",
          "name": "",
          "type": "string"
        },
        {
          "internalType": "string",
          "name": "",
          "type": "string"
        },
        {
          "internalType": "address",
          "name": "",
          "type": "address"
        },
        {
          "internalType": "bool",
          "name": "",
          "type": "bool"
        },
        {
          "internalType": "address[]",
          "name": "",
          "type": "address[]"
        },
        {
          "internalType": "uint256[]",
          "name": "",
          "type": "uint256[]"
        },
        {
          "internalType": "address[]",
          "name": "",
          "type": "address[]"
        },
        {
          "internalType": "uint256[]",
          "name": "",
          "type": "uint256[]"
        },
        {
          "internalType": "bool",
          "name": "",
          "type": "bool"
        }
      ],
      "stateMutability": "view",
      "type": "function"
    },
    {
      "inputs": [
        {
          "internalType": "bool",
          "name": "is_amount_raised",
          "type": "bool"
        }
      ],
      "name": "end_campaign",
      "outputs": [],
      "stateMutability": "nonpayable",
      "type": "function"
    },
    {
      "inputs": [],
      "name": "get_dai_balance",
      "outputs": [
        {
          "internalType": "uint256",
          "name": "",
          "type": "uint256"
        }
      ],
      "stateMutability": "view",
      "type": "function"
    },
    {
      "inputs": [],
      "name": "get_remaining_amount",
      "outputs": [
        {
          "internalType": "uint256",
          "name": "",
          "type": "uint256"
        }
      ],
      "stateMutability": "view",
      "type": "function"
    }
  ],
  "bytecode": "0x60806040526000600755735592ec0cfb4dbc12d3ab100b257153436a1f0fea600860016101000a81548173ffffffffffffffffffffffffffffffffffffffff021916908373ffffffffffffffffffffffffffffffffffffffff1602179055503480156200006b57600080fd5b506040516200238938038062002389833981810160405281019062000091919062000620565b8560009080519060200190620000a9929190620002e6565b508460019080519060200190620000c2929190620002e6565b5083600260006101000a81548173ffffffffffffffffffffffffffffffffffffffff021916908373ffffffffffffffffffffffffffffffffffffffff160217905550826200011257600062000115565b60015b600260146101000a81548160ff0219169083600181111562000160577f4e487b7100000000000000000000000000000000000000000000000000000000600052602160045260246000fd5b021790555081600490805190602001906200017d92919062000377565b5060005b8251811015620002be57818181518110620001c5577f4e487b7100000000000000000000000000000000000000000000000000000000600052603260045260246000fd5b6020026020010151600360008584815181106200020b577f4e487b7100000000000000000000000000000000000000000000000000000000600052603260045260246000fd5b602002602001015173ffffffffffffffffffffffffffffffffffffffff1673ffffffffffffffffffffffffffffffffffffffff168152602001908152602001600020819055508181815181106200028b577f4e487b7100000000000000000000000000000000000000000000000000000000600052603260045260246000fd5b6020026020010151600754620002a29190620007df565b6007819055508080620002b590620008f2565b91505062000181565b506000600860006101000a81548160ff02191690831515021790555050505050505062000a1b565b828054620002f490620008bc565b90600052602060002090601f01602090048101928262000318576000855562000364565b82601f106200033357805160ff191683800117855562000364565b8280016001018555821562000364579182015b828111156200036357825182559160200191906001019062000346565b5b50905062000373919062000406565b5090565b828054828255906000526020600020908101928215620003f3579160200282015b82811115620003f25782518260006101000a81548173ffffffffffffffffffffffffffffffffffffffff021916908373ffffffffffffffffffffffffffffffffffffffff1602179055509160200191906001019062000398565b5b50905062000402919062000406565b5090565b5b808211156200042157600081600090555060010162000407565b5090565b60006200043c62000436846200074e565b6200071a565b905080838252602082019050828560208602820111156200045c57600080fd5b60005b8581101562000490578162000475888262000554565b8452602084019350602083019250506001810190506200045f565b5050509392505050565b6000620004b1620004ab846200077d565b6200071a565b90508083825260208201905082856020860282011115620004d157600080fd5b60005b85811015620005055781620004ea888262000609565b845260208401935060208301925050600181019050620004d4565b5050509392505050565b6000620005266200052084620007ac565b6200071a565b9050828152602081018484840111156200053f57600080fd5b6200054c84828562000886565b509392505050565b6000815190506200056581620009cd565b92915050565b600082601f8301126200057d57600080fd5b81516200058f84826020860162000425565b91505092915050565b600082601f830112620005aa57600080fd5b8151620005bc8482602086016200049a565b91505092915050565b600081519050620005d681620009e7565b92915050565b600082601f830112620005ee57600080fd5b8151620006008482602086016200050f565b91505092915050565b6000815190506200061a8162000a01565b92915050565b60008060008060008060c087890312156200063a57600080fd5b600087015167ffffffffffffffff8111156200065557600080fd5b6200066389828a01620005dc565b965050602087015167ffffffffffffffff8111156200068157600080fd5b6200068f89828a01620005dc565b9550506040620006a289828a0162000554565b9450506060620006b589828a01620005c5565b935050608087015167ffffffffffffffff811115620006d357600080fd5b620006e189828a016200056b565b92505060a087015167ffffffffffffffff811115620006ff57600080fd5b6200070d89828a0162000598565b9150509295509295509295565b6000604051905081810181811067ffffffffffffffff821117156200074457620007436200099e565b5b8060405250919050565b600067ffffffffffffffff8211156200076c576200076b6200099e565b5b602082029050602081019050919050565b600067ffffffffffffffff8211156200079b576200079a6200099e565b5b602082029050602081019050919050565b600067ffffffffffffffff821115620007ca57620007c96200099e565b5b601f19601f8301169050602081019050919050565b6000620007ec826200087c565b9150620007f9836200087c565b9250827fffffffffffffffffffffffffffffffffffffffffffffffffffffffffffffffff0382111562000831576200083062000940565b5b828201905092915050565b600062000849826200085c565b9050919050565b60008115159050919050565b600073ffffffffffffffffffffffffffffffffffffffff82169050919050565b6000819050919050565b60005b83811015620008a657808201518184015260208101905062000889565b83811115620008b6576000848401525b50505050565b60006002820490506001821680620008d557607f821691505b60208210811415620008ec57620008eb6200096f565b5b50919050565b6000620008ff826200087c565b91507fffffffffffffffffffffffffffffffffffffffffffffffffffffffffffffffff82141562000935576200093462000940565b5b600182019050919050565b7f4e487b7100000000000000000000000000000000000000000000000000000000600052601160045260246000fd5b7f4e487b7100000000000000000000000000000000000000000000000000000000600052602260045260246000fd5b7f4e487b7100000000000000000000000000000000000000000000000000000000600052604160045260246000fd5b620009d8816200083c565b8114620009e457600080fd5b50565b620009f28162000850565b8114620009fe57600080fd5b50565b62000a0c816200087c565b811462000a1857600080fd5b50565b61195e8062000a2b6000396000f3fe608060405234801561001057600080fd5b50600436106100cf5760003560e01c806368e65a521161008c5780638bd4ffbc116100665780638bd4ffbc146101e8578063a65fc39214610204578063b556f3a214610234578063cc6cb19a14610252576100cf565b806368e65a521461018e578063759dadce146101ac5780638566f737146101ca576100cf565b80630724fda9146100d45780630c611f24146100f2578063110842cb146101185780631915153c14610136578063293cbf70146101525780633bc47fbe14610170575b600080fd5b6100dc610282565b6040516100e99190611540565b60405180910390f35b6100fa610310565b60405161010f99989796959493929190611562565b60405180910390f35b61012061093f565b60405161012d9190611540565b60405180910390f35b610150600480360381019061014b9190611116565b6109cd565b005b61015a610ac8565b6040516101679190611639565b60405180910390f35b610178610b4f565b604051610185919061150a565b60405180910390f35b610196610b62565b6040516101a39190611432565b60405180910390f35b6101b4610b88565b6040516101c19190611525565b60405180910390f35b6101d2610b9b565b6040516101df9190611639565b60405180910390f35b61020260048036038101906101fd9190611152565b610ba1565b005b61021e600480360381019061021991906110ed565b610f97565b60405161022b9190611639565b60405180910390f35b61023c610faf565b6040516102499190611639565b60405180910390f35b61026c600480360381019061026791906110ed565b61106c565b6040516102799190611639565b60405180910390f35b6000805461028f906117b6565b80601f01602080910402602001604051908101604052809291908181526020018280546102bb906117b6565b80156103085780601f106102dd57610100808354040283529160200191610308565b820191906000526020600020905b8154815290600101906020018083116102eb57829003601f168201915b505050505081565b60608060008060608060608060008060048054905067ffffffffffffffff811115610364577f4e487b7100000000000000000000000000000000000000000000000000000000600052604160045260246000fd5b6040519080825280602002602001820160405280156103925781602001602082028036833780820191505090505b50905060005b6004805490508110156104a757600060036000600484815481106103e5577f4e487b7100000000000000000000000000000000000000000000000000000000600052603260045260246000fd5b9060005260206000200160009054906101000a900473ffffffffffffffffffffffffffffffffffffffff1673ffffffffffffffffffffffffffffffffffffffff1673ffffffffffffffffffffffffffffffffffffffff16815260200190815260200160002054905080838381518110610487577f4e487b7100000000000000000000000000000000000000000000000000000000600052603260045260246000fd5b60200260200101818152505050808061049f906117e8565b915050610398565b50600060068054905067ffffffffffffffff8111156104ef577f4e487b7100000000000000000000000000000000000000000000000000000000600052604160045260246000fd5b60405190808252806020026020018201604052801561051d5781602001602082028036833780820191505090505b50905060005b6006805490508110156106325760006005600060068481548110610570577f4e487b7100000000000000000000000000000000000000000000000000000000600052603260045260246000fd5b9060005260206000200160009054906101000a900473ffffffffffffffffffffffffffffffffffffffff1673ffffffffffffffffffffffffffffffffffffffff1673ffffffffffffffffffffffffffffffffffffffff16815260200190815260200160002054905080838381518110610612577f4e487b7100000000000000000000000000000000000000000000000000000000600052603260045260246000fd5b60200260200101818152505050808061062a906117e8565b915050610523565b50600060018081111561066e577f4e487b7100000000000000000000000000000000000000000000000000000000600052602160045260246000fd5b600260149054906101000a900460ff1660018111156106b6577f4e487b7100000000000000000000000000000000000000000000000000000000600052602160045260246000fd5b14905060006001600260009054906101000a900473ffffffffffffffffffffffffffffffffffffffff1683600487600688600860009054906101000a900460ff16888054610703906117b6565b80601f016020809104026020016040519081016040528092919081815260200182805461072f906117b6565b801561077c5780601f106107515761010080835404028352916020019161077c565b820191906000526020600020905b81548152906001019060200180831161075f57829003601f168201915b5050505050985087805461078f906117b6565b80601f01602080910402602001604051908101604052809291908181526020018280546107bb906117b6565b80156108085780601f106107dd57610100808354040283529160200191610808565b820191906000526020600020905b8154815290600101906020018083116107eb57829003601f168201915b505050505097508480548060200260200160405190810160405280929190818152602001828054801561089057602002820191906000526020600020905b8160009054906101000a900473ffffffffffffffffffffffffffffffffffffffff1673ffffffffffffffffffffffffffffffffffffffff1681526020019060010190808311610846575b505050505094508280548060200260200160405190810160405280929190818152602001828054801561091857602002820191906000526020600020905b8160009054906101000a900473ffffffffffffffffffffffffffffffffffffffff1673ffffffffffffffffffffffffffffffffffffffff16815260200190600101908083116108ce575b505050505092509b509b509b509b509b509b509b509b509b50505050909192939495969798565b6001805461094c906117b6565b80601f0160208091040260200160405190810160405280929190818152602001828054610978906117b6565b80156109c55780601f1061099a576101008083540402835291602001916109c5565b820191906000526020600020905b8154815290600101906020018083116109a857829003601f168201915b505050505081565b600860009054906101000a900460ff1615610a1d576040517f08c379a0000000000000000000000000000000000000000000000000000000008152600401610a1490611619565b60405180910390fd5b6006829080600181540180825580915050600190039060005260206000200160009091909190916101000a81548173ffffffffffffffffffffffffffffffffffffffff021916908373ffffffffffffffffffffffffffffffffffffffff16021790555080600560008473ffffffffffffffffffffffffffffffffffffffff1673ffffffffffffffffffffffffffffffffffffffff168152602001908152602001600020819055505050565b6000600860009054906101000a900460ff1615610b1a576040517f08c379a0000000000000000000000000000000000000000000000000000000008152600401610b1190611619565b60405180910390fd5b6000610b24610faf565b9050600754811015610b465780600754610b3e91906116e2565b915050610b4c565b60009150505b90565b600860009054906101000a900460ff1681565b600260009054906101000a900473ffffffffffffffffffffffffffffffffffffffff1681565b600260149054906101000a900460ff1681565b60075481565b600860009054906101000a900460ff1615610bf1576040517f08c379a0000000000000000000000000000000000000000000000000000000008152600401610be890611619565b60405180910390fd5b6001600860006101000a81548160ff0219169083151502179055508015610dd55760005b600480549050811015610dcf57600060048281548110610c5e577f4e487b7100000000000000000000000000000000000000000000000000000000600052603260045260246000fd5b9060005260206000200160009054906101000a900473ffffffffffffffffffffffffffffffffffffffff1690506000600360008373ffffffffffffffffffffffffffffffffffffffff1673ffffffffffffffffffffffffffffffffffffffff168152602001908152602001600020549050600860019054906101000a900473ffffffffffffffffffffffffffffffffffffffff1673ffffffffffffffffffffffffffffffffffffffff1663a9059cbb83836040518363ffffffff1660e01b8152600401610d2c9291906114e1565b602060405180830381600087803b158015610d4657600080fd5b505af1158015610d5a573d6000803e3d6000fd5b505050506040513d601f19601f82011682018060405250810190610d7e919061117b565b507fd690ed21daa238e2a9f8cea5d2e6dce0e6fb46d1f3007e0ada3c520addde0703308383604051610db29392919061144d565b60405180910390a150508080610dc7906117e8565b915050610c15565b50610f94565b60005b600680549050811015610f9257600060068281548110610e21577f4e487b7100000000000000000000000000000000000000000000000000000000600052603260045260246000fd5b9060005260206000200160009054906101000a900473ffffffffffffffffffffffffffffffffffffffff1690506000600560008373ffffffffffffffffffffffffffffffffffffffff1673ffffffffffffffffffffffffffffffffffffffff168152602001908152602001600020549050600860019054906101000a900473ffffffffffffffffffffffffffffffffffffffff1673ffffffffffffffffffffffffffffffffffffffff1663a9059cbb83836040518363ffffffff1660e01b8152600401610eef9291906114e1565b602060405180830381600087803b158015610f0957600080fd5b505af1158015610f1d573d6000803e3d6000fd5b505050506040513d601f19601f82011682018060405250810190610f41919061117b565b507fd690ed21daa238e2a9f8cea5d2e6dce0e6fb46d1f3007e0ada3c520addde0703308383604051610f7593929190611497565b60405180910390a150508080610f8a906117e8565b915050610dd8565b505b50565b60036020528060005260406000206000915090505481565b600080600860019054906101000a900473ffffffffffffffffffffffffffffffffffffffff16905060008173ffffffffffffffffffffffffffffffffffffffff166370a08231306040518263ffffffff1660e01b81526004016110129190611432565b60206040518083038186803b15801561102a57600080fd5b505afa15801561103e573d6000803e3d6000fd5b505050506040513d601f19601f8201168201806040525081019061106291906111a4565b9050809250505090565b60056020528060005260406000206000915090505481565b600081359050611093816118e3565b92915050565b6000813590506110a8816118fa565b92915050565b6000815190506110bd816118fa565b92915050565b6000813590506110d281611911565b92915050565b6000815190506110e781611911565b92915050565b6000602082840312156110ff57600080fd5b600061110d84828501611084565b91505092915050565b6000806040838503121561112957600080fd5b600061113785828601611084565b9250506020611148858286016110c3565b9150509250929050565b60006020828403121561116457600080fd5b600061117284828501611099565b91505092915050565b60006020828403121561118d57600080fd5b600061119b848285016110ae565b91505092915050565b6000602082840312156111b657600080fd5b60006111c4848285016110d8565b91505092915050565b60006111d983836111fd565b60208301905092915050565b60006111f18383611414565b60208301905092915050565b61120681611716565b82525050565b61121581611716565b82525050565b600061122682611674565b61123081856116af565b935061123b83611654565b8060005b8381101561126c57815161125388826111cd565b975061125e83611695565b92505060018101905061123f565b5085935050505092915050565b60006112848261167f565b61128e81856116c0565b935061129983611664565b8060005b838110156112ca5781516112b188826111e5565b97506112bc836116a2565b92505060018101905061129d565b5085935050505092915050565b6112e081611728565b82525050565b6112ef81611771565b82525050565b60006113008261168a565b61130a81856116d1565b935061131a818560208601611783565b611323816118be565b840191505092915050565b600061133b6011836116d1565b91507f5061796d656e7420746f2076656e646f720000000000000000000000000000006000830152602082019050919050565b600061137b602a836116d1565b91507f43616d706169676e20456e6465642063616e6e6f74206163636573732074686560008301527f7365206d6574686f6473000000000000000000000000000000000000000000006020830152604082019050919050565b60006113e1600f836116d1565b91507f526566756e6420746f20446f6e6f7200000000000000000000000000000000006000830152602082019050919050565b61141d81611767565b82525050565b61142c81611767565b82525050565b6000602082019050611447600083018461120c565b92915050565b6000608082019050611462600083018661120c565b61146f602083018561120c565b61147c6040830184611423565b818103606083015261148d8161132e565b9050949350505050565b60006080820190506114ac600083018661120c565b6114b9602083018561120c565b6114c66040830184611423565b81810360608301526114d7816113d4565b9050949350505050565b60006040820190506114f6600083018561120c565b6115036020830184611423565b9392505050565b600060208201905061151f60008301846112d7565b92915050565b600060208201905061153a60008301846112e6565b92915050565b6000602082019050818103600083015261155a81846112f5565b905092915050565b600061012082019050818103600083015261157d818c6112f5565b90508181036020830152611591818b6112f5565b90506115a0604083018a61120c565b6115ad60608301896112d7565b81810360808301526115bf818861121b565b905081810360a08301526115d38187611279565b905081810360c08301526115e7818661121b565b905081810360e08301526115fb8185611279565b905061160b6101008301846112d7565b9a9950505050505050505050565b600060208201905081810360008301526116328161136e565b9050919050565b600060208201905061164e6000830184611423565b92915050565b6000819050602082019050919050565b6000819050602082019050919050565b600081519050919050565b600081519050919050565b600081519050919050565b6000602082019050919050565b6000602082019050919050565b600082825260208201905092915050565b600082825260208201905092915050565b600082825260208201905092915050565b60006116ed82611767565b91506116f883611767565b92508282101561170b5761170a611831565b5b828203905092915050565b600061172182611747565b9050919050565b60008115159050919050565b6000819050611742826118cf565b919050565b600073ffffffffffffffffffffffffffffffffffffffff82169050919050565b6000819050919050565b600061177c82611734565b9050919050565b60005b838110156117a1578082015181840152602081019050611786565b838111156117b0576000848401525b50505050565b600060028204905060018216806117ce57607f821691505b602082108114156117e2576117e161188f565b5b50919050565b60006117f382611767565b91507fffffffffffffffffffffffffffffffffffffffffffffffffffffffffffffffff82141561182657611825611831565b5b600182019050919050565b7f4e487b7100000000000000000000000000000000000000000000000000000000600052601160045260246000fd5b7f4e487b7100000000000000000000000000000000000000000000000000000000600052602160045260246000fd5b7f4e487b7100000000000000000000000000000000000000000000000000000000600052602260045260246000fd5b6000601f19601f8301169050919050565b600281106118e0576118df611860565b5b50565b6118ec81611716565b81146118f757600080fd5b50565b61190381611728565b811461190e57600080fd5b50565b61191a81611767565b811461192557600080fd5b5056fea2646970667358221220cfe0278d70ca6cbbf80d9afaca3c297e8c078710539fbfe50ddd12d45462c8c264736f6c63430008000033",
  "immutableReferences": {},
  "source": "// SPDX-License-Identifier: MIT\npragma solidity 0.8.0;\n\ninterface IUniswap {\n    function swapExactTokensForTokens(\n        uint amountIn,\n        uint amountOutMin,\n        address[] calldata path,\n        address to,\n        uint deadline\n    ) external\n    returns (uint[] memory amounts);\n\n    function WETH() external pure returns (address);\n\n    function swapExactETHForTokens(\n        uint amountOutMin,\n        address[] calldata path,\n        address to, uint deadline\n    ) external \n    payable\n    returns (uint[] memory amounts);\n\n}\n\ninterface IERC20 {\n    function transferFrom(address from, address to, uint256 amount) external returns (bool);\n    function approve(address spender, uint256 amount) external returns (bool);\n    function allowance(address owner, address spender) external view returns (uint256);\n    function balanceOf(address account) external view returns (uint256);\n    function transfer(address to, uint256 amount) external returns (bool);\n}\n\nlibrary Strings {\n    bytes16 private constant _HEX_SYMBOLS = \"0123456789abcdef\";\n\n    /**\n     * @dev Converts a `uint256` to its ASCII `string` decimal representation.\n     */\n    function toString(uint256 value) internal pure returns (string memory) {\n        // Inspired by OraclizeAPI's implementation - MIT licence\n        // https://github.com/oraclize/ethereum-api/blob/b42146b063c7d6ee1358846c198246239e9360e8/oraclizeAPI_0.4.25.sol\n\n        if (value == 0) {\n            return \"0\";\n        }\n        uint256 temp = value;\n        uint256 digits;\n        while (temp != 0) {\n            digits++;\n            temp /= 10;\n        }\n        bytes memory buffer = new bytes(digits);\n        while (value != 0) {\n            digits -= 1;\n            buffer[digits] = bytes1(uint8(48 + uint256(value % 10)));\n            value /= 10;\n        }\n        return string(buffer);\n    }\n\n    /**\n     * @dev Converts a `uint256` to its ASCII `string` hexadecimal representation.\n     */\n    function toHexString(uint256 value) internal pure returns (string memory) {\n        if (value == 0) {\n            return \"0x00\";\n        }\n        uint256 temp = value;\n        uint256 length = 0;\n        while (temp != 0) {\n            length++;\n            temp >>= 8;\n        }\n        return toHexString(value, length);\n    }\n\n    /**\n     * @dev Converts a `uint256` to its ASCII `string` hexadecimal representation with fixed length.\n     */\n    function toHexString(uint256 value, uint256 length) internal pure returns (string memory) {\n        bytes memory buffer = new bytes(2 * length + 2);\n        buffer[0] = \"0\";\n        buffer[1] = \"x\";\n        for (uint256 i = 2 * length + 1; i > 1; --i) {\n            buffer[i] = _HEX_SYMBOLS[value & 0xf];\n            value >>= 4;\n        }\n        require(value == 0, \"Strings: hex length insufficient\");\n        return string(buffer);\n    }\n}\n\ncontract CrowdFund{\n    address public owner;\n    IUniswap uniswap;\n    mapping(string => address) public TOKEN_ADDRESSES;\n\n    event CreateCampaign(address creator, address campaign_address, string _cName, string _desc, bool _cType, address[] _vAddresses, uint[] _vAmounts);\n    event EndCampaign(address campaign_address, string end_reason);\n    event DonationRecieved(address donor_address, address campaign_address, string tokenIn, uint amountIn, string tokenOut, uint amountOut, uint amount_remaining);\n\n    constructor(address _uniswapRouter) public {\n        uniswap = IUniswap(_uniswapRouter);\n        owner = msg.sender;\n        TOKEN_ADDRESSES[\"DAI\"] = 0x5592EC0cfb4dbc12D3aB100b257153436a1f0FEa;\n        TOKEN_ADDRESSES[\"WDAI\"] = 0xc7AD46e0b8a400Bb3C915120d284AafbA8fc4735;\n    }\n\n    Campaign[] public campaigns;\n\n    function end_campaign(address campaign_address, string memory end_reason, bool is_amount_raised) public {\n        Campaign campaign = Campaign(campaign_address);\n        if(campaign.get_remaining_amount() == 0) {\n            require(campaign.campaignerAddress() == msg.sender, \"Only campaign owner can end campaign\");\n        }\n        campaign.end_campaign(is_amount_raised);\n        emit EndCampaign(campaign_address, end_reason);\n    }\n    \n    function recieveDonations(address campaign_address, string memory tokenIn, uint amount) public payable {\n        Campaign camp = Campaign(campaign_address);\n        require(camp.campaignEnded() != true, \"Campaign already ended\");\n        // get the amount and swap it to DAI using Uniswap\n        if (msg.value > 0 && TOKEN_ADDRESSES[tokenIn] == address(0)) {\n            // swapExactEthforToken\n            require(msg.value >= amount, \"The ETH sent is less than amount\");\n            address[] memory path = new address[](2);\n            path[0] = uniswap.WETH();\n            path[1] = TOKEN_ADDRESSES[\"DAI\"];\n            uint[] memory amounts = uniswap.swapExactETHForTokens{ value: msg.value }(0, path, campaign_address, block.timestamp);\n            camp.addDonation(msg.sender, amounts[amounts.length - 1]);\n            emit DonationRecieved(msg.sender, campaign_address, tokenIn, msg.value, \"DAI\", amounts[amounts.length - 1], camp.get_remaining_amount());\n        } else{\n            // swapExactTokenforToken\n            IERC20 token = IERC20(TOKEN_ADDRESSES[tokenIn]);\n            require(token.balanceOf(msg.sender) >= amount, \"Insufficient balance\");\n            uint allowance = token.allowance(msg.sender, address(this));\n            require(allowance >= amount, \"Insufficient allowance\");\n            token.transferFrom(msg.sender, address(this), amount);\n            address[] memory path = new address[](3);\n            path[0] = TOKEN_ADDRESSES[tokenIn];\n            path[1] = uniswap.WETH();\n            path[2] = TOKEN_ADDRESSES[\"DAI\"];\n            if(path[0] == path[2]){\n                // Sending DAI\n                token.transfer(campaign_address, amount);\n                camp.addDonation(msg.sender, amount);\n                emit DonationRecieved(msg.sender, campaign_address, tokenIn, amount, \"DAI\", amount, camp.get_remaining_amount());\n            }else {\n                token.approve(address(uniswap), amount);\n                uint[] memory amounts = uniswap.swapExactTokensForTokens(amount, 0, path, campaign_address, block.timestamp);\n                camp.addDonation(msg.sender, amounts[amounts.length - 1]);\n                emit DonationRecieved(msg.sender, campaign_address, tokenIn, amount, \"DAI\", amounts[amounts.length - 1], camp.get_remaining_amount());\n            }\n        }\n        if(camp.get_remaining_amount() == 0) {\n            end_campaign(campaign_address, \"Amount Raised\", true);\n        }\n    }\n\n    function create_campaign(string memory _cName, string memory _desc, bool _cType, address[] memory _vAddresses, uint[] memory _vAmounts) public returns(address) {\n        // create campaign\n        Campaign new_campaign = new Campaign(_cName, _desc, msg.sender, _cType, _vAddresses, _vAmounts);\n        campaigns.push(new_campaign);\n        emit CreateCampaign(msg.sender, address(new_campaign), _cName, _desc, _cType, _vAddresses, _vAmounts);\n        return address(new_campaign);\n    }\n    \n    function return_all_campaigns() external view returns(Campaign[] memory) {\n        return campaigns;\n    }\n\n}\n\ncontract Campaign{\n\n    string public campaignName;\n    string public campaignDescription;\n    address public campaignerAddress;\n    enum CampaignType{ NonProfit, Profit}\n    CampaignType public campaignType;\n    mapping(address => uint) public vendorsDetails;\n    address[] vendorList;\n    mapping(address => uint) public donations;\n    address[] donorList;\n    uint public amountToRaise = 0;\n    bool public campaignEnded;\n    address DAI = 0x5592EC0cfb4dbc12D3aB100b257153436a1f0FEa;\n\n    event FundTransfers(address campaign_address, address vendor_address, uint amount, string trans_type);\n\n    modifier campaignNotEnded {\n        require(!campaignEnded, \"Campaign Ended cannot access these methods\");\n        _;\n    }\n\n    constructor(string memory _cName,\n        string memory _desc,\n        address _crAddress,\n        bool _cType,\n        address[] memory _vAddresses,\n        uint[] memory _vAmounts\n    ) public {\n        campaignName = _cName;\n        campaignDescription = _desc;\n        campaignerAddress = _crAddress;\n        campaignType = _cType ? CampaignType.Profit : CampaignType.NonProfit;\n        vendorList = _vAddresses;\n        for (uint i=0; i<_vAddresses.length; i++) {\n            vendorsDetails[_vAddresses[i]] = _vAmounts[i];\n            amountToRaise = amountToRaise + _vAmounts[i];\n        }\n        campaignEnded = false;\n    }\n\n    function addDonation(address donor, uint amount) public campaignNotEnded {\n        donorList.push(donor);\n        donations[donor] = amount;\n    }\n\n    function getCampaignDetails() external view returns(string memory, string memory, address, bool, address[] memory, uint[] memory, address[] memory, uint[] memory, bool) {\n        uint[] memory vendor_amounts = new uint[](vendorList.length);\n        for (uint i = 0; i < vendorList.length; i++) {\n            uint amount = vendorsDetails[vendorList[i]];\n            vendor_amounts[i] = amount;\n        }\n        uint[] memory donor_amounts = new uint[](donorList.length);\n        for (uint i = 0; i < donorList.length; i++) {\n            uint amount = donations[donorList[i]];\n            donor_amounts[i] = amount;\n        }\n        bool ctype = campaignType == CampaignType.Profit;\n        return (campaignName, campaignDescription, campaignerAddress, ctype, vendorList, vendor_amounts, donorList, donor_amounts, campaignEnded);\n    }\n\n    function end_campaign(bool is_amount_raised) external campaignNotEnded {\n        campaignEnded = true;\n        if(is_amount_raised) {\n            // transfer funds to vendors\n            for (uint vi = 0; vi < vendorList.length; vi++) {\n                address vendorAddress = vendorList[vi];\n                uint amount = vendorsDetails[vendorAddress];\n                IERC20(DAI).transfer(vendorAddress, amount);\n                emit FundTransfers(address(this), vendorAddress, amount, \"Payment to vendor\");\n            }\n        } else {\n            for (uint vi = 0; vi < donorList.length; vi++) {\n                address donorAddress = donorList[vi];\n                uint amount = donations[donorAddress];\n                IERC20(DAI).transfer(donorAddress, amount);\n                emit FundTransfers(address(this), donorAddress, amount, \"Refund to Donor\");\n            }\n        }\n    }\n\n    function get_dai_balance() public view returns(uint) {\n        IERC20 dai = IERC20(DAI);\n        uint256 balance = dai.balanceOf(address(this));\n        return balance;\n    }\n\n    function get_remaining_amount() public view campaignNotEnded returns(uint) {\n        uint bal = get_dai_balance();\n        if (bal < amountToRaise) {\n            return amountToRaise - bal;\n        }else {\n            return 0;\n        }\n    }\n}",
  "sourcePath": "D:\\Project FY\\crowdfund-smart-contract-main\\crowdfund-smart-contract-main\\contracts\\CrowdFund.sol",
  "compiler": {
    "name": "solc",
    "version": "0.8.0+commit.c7dfd78e.Emscripten.clang"
  },
  "schemaVersion": "3.4.8",
  "updatedAt": "2022-07-11T10:03:16.652Z",
  "networkType": "ethereum",
  "devdoc": {
    "kind": "dev",
    "methods": {},
    "version": 1
  },
  "userdoc": {
    "kind": "user",
    "methods": {},
    "version": 1
  }
}